:100000000C942A000C9447000C9447000C94470071
:100010000C9447000C9447000C9447000C94470044
:100020000C9447000C9447000C9447000C94470034
:100030000C94660B0C9406030C94B7030C944700C5
:100040000C9447000C9447000C9447000C94470014
:100050000C94470011241FBECFE5D8E0DEBFCDBF12
:1000600010E0A0E6B0E0ECE3FAE102C005900D92EA
:10007000A836B107D9F720E0A8E6B0E001C01D928C
:10008000A237B207E1F70E94EC070C941C0D0C9408
:100090000000CF93DF9300D000D000D00F92CDB7F7
:1000A000DEB79D838C837F836E831A8219821B82C5
:1000B0001BC089819A812C813D81820F931FFC0195
:1000C000408189819A812E813F81820F931FFC019B
:1000D0008081481719F481E08B8301C01B828981DC
:1000E0009A8101969A83898389819A812E813F81A1
:1000F000820F931FFC0180818823D9F68B8127967C
:100100000FB6F894DEBF0FBECDBFDF91CF9108953B
:100110000F931F93CF93DF93CDB7DEB729970FB619
:10012000F894DEBF0FBECDBF9D838C8381E08983B1
:1001300080E490E0DC012C9180E490E02068FC01F8
:10014000208380E490E0DC012C9180E490E02F7D1E
:10015000FC01208380E490E0DC012C9180E490E0BD
:100160002F7EFC01208380E490E0DC012C9180E470
:1001700090E0277FFC01208380E490E0DC012C915B
:1001800080E490E02F7BFC012083109269008C8139
:100190009D81DC0114968C918823E1F480E490E049
:1001A000FC01208180E490E02D7FDC012C9380E431
:1001B00090E0FC01208180E490E02B7FDC012C9317
:1001C0008AE290E0FC0120818AE290E02B7FDC0152
:1001D0002C938EC08C819D81FC0184818130E1F45F
:1001E00080E490E0DC012C9180E490E02260FC014E
:1001F000208380E490E0DC012C9180E490E02B7F70
:10020000FC0120838AE290E0DC012C918AE290E0FC
:100210002B7FFC0120836CC08C819D81DC011496B6
:100220008C918230E1F480E490E0FC01208180E454
:1002300090E02D7FDC012C9380E490E0FC01208194
:1002400080E490E02460DC012C938AE290E0FC01E1
:1002500020818AE290E02B7FDC012C9349C08C81C5
:100260009D81FC0184818330E1F480E490E0DC0135
:100270002C9180E490E02260FC01208380E490E0F7
:10028000DC012C9180E490E02460FC0120838AE270
:1002900090E0DC012C918AE290E02B7FFC0120832E
:1002A00027C08C819D81DC0114968C918730F9F4F4
:1002B00080E490E0FC01208180E490E02260DC0199
:1002C0002C9380E490E0FC01208180E490E02460A5
:1002D000DC012C938AE290E0FC0120818AE290E02C
:1002E0002460DC012C9381E08093690001C01982B5
:1002F0008C819D81FC018581809368008C819D812A
:10030000DC0115968C91813051F48FE590E0FC0171
:1003100020818FE590E02068DC012C931AC08C814D
:100320009D81FC018581882399F48AE290E0DC01BB
:100330002C918AE290E02F77FC0120838AE290E002
:10034000DC012C918AE290E02F7DFC01208301C02A
:1003500019828C819D81FC0180819181A281B38170
:10036000880F991FAA1FBB1F880F991FAA1FBB1FA9
:10037000880F991FAA1FBB1F880F991FAA1FBB1F99
:100380008C019D0180E092E1AAE7B0E08E839F831B
:10039000A887B9876E817F8188859985A901980191
:1003A0000E94DF0BDA01C90101979B838A838A814E
:1003B0009B818F3F910509F030F489E290E02A811A
:1003C000DC012C9316C080E490E0FC01208180E4E5
:1003D00090E02F77DC012C938A819B81292F332792
:1003E00080E490E0FC01208389E290E02A81DC0136
:1003F0002C93898129960FB6F894DEBF0FBECDBF2E
:10040000DF91CF911F910F910895CF93DF9300D08B
:100410000F92CDB7DEB79B838A8381E089838AE21E
:1004200090E0FC0120818AE290E02860FC012083BA
:1004300000008BE290E0FC018081829586958770B8
:10044000882F90E081709927019799F78091690032
:100450008130E1F480E490E0FC018081382F3F7B23
:100460008A819B81892F992786958295880F880F8D
:10047000807C282F207480E490E0232BFC012083D3
:100480008CE290E02A81FC01208305C08CE290E0A0
:100490002A81FC01208300008BE290E0FC01808136
:1004A0008295869586958370882F90E08170992734
:1004B000019791F78BE290E0FC0120818BE290E0C4
:1004C0002064FC01208389810F900F900F90DF91B1
:1004D000CF910895CF93DF9300D00F92CDB7DEB7C1
:1004E0009B838A8381E089838AE290E0FC012081FA
:1004F0008AE290E02061FC01208300008BE290E022
:10050000FC018081881F8827881F882F90E08170D8
:100510009927019799F700008BE290E0FC01808118
:10052000829586958770882F90E081709927019732
:1005300099F780916900813041F58A819B81FC01A6
:10054000808191819C013D7F80E490E0FC0180816D
:10055000881F8827881F882F90E0982F8827990F59
:1005600088279270282B392B8A819B81FC0131834B
:1005700020838CE290E0FC018081282F30E08A818A
:100580009B81FC01318320830BC08CE290E0FC0155
:100590008081282F30E08A819B81FC013183208378
:1005A00089810F900F900F90DF91CF910895CF9395
:1005B000DF9300D00F92CDB7DEB79B838A8381E0B3
:1005C00089838A819B81892BC9F08AE290E0FC01B2
:1005D00020818AE290E02061FC0120838AE290E0A1
:1005E000FC0120818AE290E02068FC0120838A815E
:1005F0009B8190936D0080936C0001C0198289816A
:100600000F900F900F90DF91CF9108951F920F924E
:100610000FB60F9211242F933F934F935F936F93D5
:100620007F938F939F93AF93BF93EF93FF93CF935A
:10063000DF9300D0CDB7DEB780916C0090916D0054
:10064000892B09F44FC080916900813069F5898157
:100650009A819C013D7F80E490E0FC018081881FAD
:100660008827881F882F90E0982F8827990F882740
:100670009270822B932B9A83898300008BE290E007
:10068000FC018081829586958770882F90E081702B
:100690009927019799F78CE290E0FC018081882FDF
:1006A00090E09A83898316C000008BE290E0FC0101
:1006B0008081829586958770882F90E08170992738
:1006C000019799F78CE290E0FC018081882F90E0FF
:1006D0009A83898320916C0030916D0089819A8181
:1006E000F901099500000F900F90DF91CF91FF91D4
:1006F000EF91BF91AF919F918F917F916F915F919A
:100700004F913F912F910F900FBE0F901F90189512
:10071000CF93DF9300D00F92CDB7DEB79B838A8350
:1007200081E089838A819B81892BC9F08AE290E0EC
:10073000FC0120818AE290E02860FC0120838A810C
:100740009B8190936B0080936A008AE290E0FC01A9
:1007500020818AE290E02062FC01208301C019829E
:1007600089810F900F900F90DF91CF9108951F9284
:100770000F920FB60F9211242F933F938F939F9355
:10078000EF93FF93CF93DF93CDB7DEB780916A00ED
:1007900090916B00FC01208131818CE290E0FC01A2
:1007A000208300008BE290E0FC0180818295869599
:1007B00086958370882F90E081709927019791F733
:1007C0008BE290E0FC0120818BE290E02064FC0150
:1007D00020838AE290E0FC0120818AE290E02F7D74
:1007E000FC0120830000DF91CF91FF91EF919F9159
:1007F0008F913F912F910F900FBE0F901F901895E2
:10080000CF93DF930F92CDB7DEB789838CE290E070
:100810002981FC01208300008BE290E0FC018081B3
:100820008295869586958370882F90E081709927B0
:10083000019791F7000000000F90DF91CF9108958C
:10084000CF93DF9300D000D0CDB7DEB78A836B8320
:100850004C8381E089838B81883008F0A6C08A812F
:10086000882F90E08330910509F47AC08430910597
:100870000CF099C08230910509F44FC08330910586
:100880000CF091C0009719F0019721F18CC08AE318
:1008900090E0FC018081482F8B81282F30E081E09F
:1008A00090E002C0880F991F2A95E2F780954823AF
:1008B0008C81882F90E02B81222F30E002C0880F9E
:1008C000991F2A95E2F7242F282B8AE390E0FC0158
:1008D00020836CC087E390E0FC018081482F8B81EE
:1008E000282F30E081E090E002C0880F991F2A9500
:1008F000E2F7809548238C81882F90E02B81222F6E
:1009000030E002C0880F991F2A95E2F7242F282B88
:1009100087E390E0FC01208349C084E390E0FC0180
:100920008081482F8B81282F30E081E090E002C049
:10093000880F991F2A95E2F7809548238C81882F8C
:1009400090E02B81222F30E002C0880F991F2A955A
:10095000E2F7242F282B84E390E0FC01208326C0BB
:1009600081E390E0FC018081482F8B81282F30E0CB
:1009700081E090E002C0880F991F2A95E2F78095E8
:1009800048238C81882F90E02B81222F30E002C0F9
:10099000880F991F2A95E2F7242F282B81E390E0F6
:1009A000FC01208303C0198201C0198289810F9044
:1009B0000F900F900F90DF91CF910895CF93DF9319
:1009C00000D00F92CDB7DEB78A836B8381E0898335
:1009D0008A81882F90E08330910501F18430910560
:1009E0001CF582309105A1F083309105ECF400975D
:1009F00019F0019739F018C08AE390E02B81FC01CF
:100A0000208314C08AE390E02B81FC0120830EC078
:100A10008AE390E02B81FC01208308C08AE390E008
:100A20002B81FC01208302C01982000089810F9074
:100A30000F900F90DF91CF910895CF93DF9300D067
:100A400000D0CDB7DEB78A836B834C8381E0898386
:100A50008B81883008F0A6C08A81882F90E083308F
:100A6000910509F47AC0843091050CF099C0823068
:100A7000910509F44FC0833091050CF091C00097A7
:100A800019F0019721F18CC08BE390E0FC0180818B
:100A9000482F8B81282F30E081E090E002C0880F42
:100AA000991F2A95E2F7809548238C81882F90E042
:100AB0002B81222F30E002C0880F991F2A95E2F780
:100AC000242F282B8BE390E0FC0120836CC088E36B
:100AD00090E0FC018081482F8B81282F30E081E05D
:100AE00090E002C0880F991F2A95E2F7809548236D
:100AF0008C81882F90E02B81222F30E002C0880F5C
:100B0000991F2A95E2F7242F282B88E390E0FC0117
:100B1000208349C085E390E0FC018081482F8B81D0
:100B2000282F30E081E090E002C0880F991F2A95BD
:100B3000E2F7809548238C81882F90E02B81222F2B
:100B400030E002C0880F991F2A95E2F7242F282B46
:100B500085E390E0FC01208326C082E390E0FC0165
:100B60008081482F8B81282F30E081E090E002C007
:100B7000880F991F2A95E2F7809548238C81882F4A
:100B800090E02B81222F30E002C0880F991F2A9518
:100B9000E2F7242F282B82E390E0FC01208303C09E
:100BA000198201C0198289810F900F900F900F90C8
:100BB000DF91CF910895CF93DF9300D00F92CDB7FF
:100BC000DEB78A836B8381E089838A81882F90E0F6
:100BD0008330910501F1843091051CF58230910537
:100BE000A1F083309105ECF4009719F0019739F0EA
:100BF00018C08BE390E02B81FC01208314C088E3B4
:100C000090E02B81FC0120830EC085E390E02B81D6
:100C1000FC01208308C082E390E02B81FC0120834B
:100C200002C01982000089810F900F900F90DF9110
:100C3000CF910895CF93DF9300D000D00F92CDB71E
:100C4000DEB78A836B835D834C8381E089838B81EC
:100C5000883008F06DC08A81882F90E0833091053C
:100C600009F44FC0843091050CF060C082309105CA
:100C700099F1833091050CF059C0009719F0019754
:100C8000B1F054C089E390E0FC018081882F90E0AE
:100C90002B81222F30E002C0959587952A95E2F7A7
:100CA000282F21708C819D81FC01208342C086E326
:100CB00090E0FC018081882F90E02B81222F30E092
:100CC00002C0959587952A95E2F7282F21708C818F
:100CD0009D81FC0120832DC083E390E0FC01808195
:100CE000882F90E02B81222F30E002C095958795C8
:100CF0002A95E2F7282F21708C819D81FC012083A9
:100D000018C080E390E0FC018081882F90E02B8167
:100D1000222F30E002C0959587952A95E2F7282F7B
:100D200021708C819D81FC01208303C0198201C048
:100D3000198289810F900F900F900F900F90DF9183
:100D4000CF910895CF93DF9300D000D0CDB7DEB719
:100D50008A837C836B8381E089838A81882F90E0FA
:100D60008330910549F1843091057CF582309105FD
:100D7000D1F0833091054CF5009719F0019751F0AF
:100D800024C089E390E0FC0120818B819C81FC01DF
:100D900020831DC086E390E0FC0120818B819C8133
:100DA000FC01208314C083E390E0FC0120818B814F
:100DB0009C81FC0120830BC080E390E0FC0120813A
:100DC0008B819C81FC01208302C0198200008981F3
:100DD0000F900F900F900F90DF91CF910895CF93C8
:100DE000DF9300D000D0CDB7DEB78A836B834C830E
:100DF00081E089838B81883008F0A6C08A81882FA2
:100E000090E08330910509F47AC0843091050CF0AC
:100E100099C08230910509F44FC0833091050CF0E0
:100E200091C0009719F0019721F18CC08BE390E0FD
:100E3000FC018081482F8B81282F30E081E090E0F9
:100E400002C0880F991F2A95E2F7809548238C816C
:100E5000882F90E02B81222F30E002C0880F991F4D
:100E60002A95E2F7242F282B8BE390E0FC012083C6
:100E70006CC088E390E0FC018081482F8B81282F93
:100E800030E081E090E002C0880F991F2A95E2F7D8
:100E9000809548238C81882F90E02B81222F30E091
:100EA00002C0880F991F2A95E2F7242F282B88E388
:100EB00090E0FC01208349C085E390E0FC01808143
:100EC000482F8B81282F30E081E090E002C0880F0E
:100ED000991F2A95E2F7809548238C81882F90E00E
:100EE0002B81222F30E002C0880F991F2A95E2F74C
:100EF000242F282B85E390E0FC01208326C082E389
:100F000090E0FC018081482F8B81282F30E081E028
:100F100090E002C0880F991F2A95E2F78095482338
:100F20008C81882F90E02B81222F30E002C0880F27
:100F3000991F2A95E2F7242F282B82E390E0FC01E9
:100F4000208303C0198201C0198289810F900F90FC
:100F50000F900F90DF91CF910895CF93DF9300D042
:100F60000F92CDB7DEB78A836B8381E089838A8154
:100F7000882F90E08330910501F1843091051CF5B4
:100F800082309105A1F083309105ECF4009719F0BF
:100F9000019739F018C08BE390E02B81FC0120838E
:100FA00014C088E390E02B81FC0120830EC085E310
:100FB00090E02B81FC01208308C082E390E02B812C
:100FC000FC01208302C01982000089810F900F90DC
:100FD0000F90DF91CF910895CF93DF93CDB7DEB718
:100FE00029970FB6F894DEBF0FBECDBF26E0E1E62D
:100FF000F0E0CE010196DC0101900D922A95E1F717
:1010000081E08F8382E0888781E08987CE01019625
:101010000E94880088850E94630882E198E00E940F
:10102000D702FBCFCF93DF930F92CDB7DEB7898383
:101030008981882F90E086339105D1F1873391051E
:101040000CF03CC08533910569F186339105B4F508
:101050008433910509F18533910584F58333910536
:10106000A9F08433910554F58133910519F0C297A5
:1010700039F024C060E070E081E00E94EA091EC0FF
:1010800060E070E082E00E94EA0918C060E070E071
:1010900083E00E94EA0912C060E070E084E00E94F0
:1010A000EA090CC060E070E085E00E94EA0906C031
:1010B00060E070E086E00E94EA09000000000F9006
:1010C000DF91CF910895CF93DF9300D0CDB7DEB7F6
:1010D0008A8381E089838DE290E0FC0120818DE2AA
:1010E00090E02F7DFC0120838DE290E0FC012081C7
:1010F0008DE290E02860FC0120838DE290E0FC010D
:1011000020818DE290E02460FC01208341E065E0D5
:1011100081E00E94200440E066E081E00E9420041B
:1011200041E067E081E00E94200441E064E081E06A
:101130000E94200441E067E081E00E941D058DE2ED
:1011400090E0FC0120818DE290E02061FC01208391
:101150008DE290E0FC0120818DE290E02E7FFC0189
:1011600020838DE290E0FC0120818DE290E02D7FD4
:10117000FC0120838EE290E0FC0120818EE290E071
:101180002E7FFC0120838A818330B0F58DE290E0D0
:10119000FC018081882F90E09C012C7F33278A817D
:1011A000882F90E083709927282B392B8DE290E0CF
:1011B000FC018081982F822F292F282B8DE290E02F
:1011C000FC0120838A81843048F08EE290E0FC01AB
:1011D00020818EE290E02160FC0120838DE290E08E
:1011E000FC0120818DE290E02064FC0120831092BC
:1011F0006F0010926E0001C0198289810F900F90CC
:10120000DF91CF910895CF93DF930F92CDB7DEB7E3
:1012100081E089838DE290E0FC0120818DE290E005
:101220002F7DFC0120838DE290E0FC0120818DE286
:1012300090E02860FC0120838DE290E0FC01208199
:101240008DE290E02460FC01208340E065E081E0D5
:101250000E94200441E066E081E00E94200440E01A
:1012600067E081E00E94200440E064E081E00E94A9
:1012700020048DE290E0FC0120818DE290E02F7E41
:10128000FC0120838DE290E0FC0120818DE290E062
:101290002064FC01208310927100109270008981FB
:1012A0000F90DF91CF910895CF93DF9300D00F92ED
:1012B000CDB7DEB789837B836A838DE290E0FC0142
:1012C00020818DE290E02F77FC0120838FE290E077
:1012D0002981FC01208340E064E081E00E941D053B
:1012E0008DE290E0FC0120818DE290E02064FC0121
:1012F000208300008EE290E0FC018081881F882717
:10130000881F882F90E081709927019799F78FE2C5
:1013100090E0FC0120818A819B81FC0120838DE289
:1013200090E0FC0120818DE290E02F7BFC01208386
:1013300041E064E081E00E941D0500000F900F90E5
:101340000F90DF91CF910895CF93DF9300D00F924C
:10135000CDB7DEB789837B836A838DE290E0FC01A1
:1013600020818DE290E02F77FC0120838FE290E0D6
:101370002981FC0120838DE290E0FC0120818DE237
:1013800090E02064FC01208300008EE290E0FC01EC
:101390008081881F8827881F882F90E08170992777
:1013A000019799F78FE290E0FC0120818A819B816F
:1013B000FC0120838DE290E0FC0120818DE290E031
:1013C0002F7BFC01208300000F900F900F90DF9186
:1013D000CF910895CF93DF9300D00F92CDB7DEB7B2
:1013E00089837B836A83809160008A3071F58FE501
:1013F00090E0FC0120818FE590E02068FC012083D3
:101400008A819B8190936F0080936E008DE290E0C3
:10141000FC0120818DE290E02068FC0120838FE2B6
:1014200090E02981FC01208340E064E081E00E949B
:101430001D0581E0809360008DE290E0FC01208139
:101440008DE290E02064FC01208300000F900F905B
:101450000F90DF91CF910895CF93DF9300D00F923B
:10146000CDB7DEB789837B836A83809160008A3041
:1014700041F58FE590E0FC0120818FE590E0206848
:10148000FC0120838A819B8190937100809370007E
:101490008DE290E0FC0120818DE290E02068FC016B
:1014A0002083109260008FE290E02981FC0120836C
:1014B0008DE290E0FC0120818DE290E02064FC014F
:1014C000208300000F900F900F90DF91CF9108952F
:1014D000CF93DF93CDB7DEB7A8970FB6F894DEBFF2
:1014E0000FBECDBF9A8B898B7C8B6B8B1A82198236
:1014F000A1C029893A8989819A81820F931FDC01D1
:101500002C918B899C89BC01822F0E94EA098981D8
:101510009A8101969A83898380E090E0A0E8BFE3F6
:101520008B839C83AD83BE8320E030E04AEF54E49C
:101530006B817C818D819E810E94870C698F7A8F5F
:101540008B8F9C8F898D9A8DAB8DBC8D8F83988767
:10155000A987BA8720E030E040E85FE36F817885B3
:1015600089859A850E94010C88232CF481E090E003
:101570009C878B8754C020E03FEF4FE757E46F8193
:10158000788589859A850E94820C1816D4F520E00A
:1015900030E040E251E46B817C818D819E810E942C
:1015A000870C6D8F7E8F8F8F98A38D8D9E8DAF8DC5
:1015B000B8A18D8B9E8BAF8BB88F6D897E898F89FB
:1015C000988D0E94060C69A37AA38BA39CA3A9A162
:1015D000BAA1BC87AB8710C088EC90E09E878D874E
:1015E0008D859E850197F1F79E878D8700008B85FD
:1015F0009C8501979C878B878B859C85892B61F7C0
:1016000019C06F81788589859A850E94060C6DA323
:101610007EA38FA398A7EDA1FEA1FC87EB878B8506
:101620009C85988B8F878F8598890197F1F7988B88
:101630008F87000029893A8989819A81820F931FB7
:10164000DC018C91882309F054CF00000000A8969B
:101650000FB6F894DEBF0FBECDBFDF91CF910895D6
:10166000CF93DF9300D000D000D0CDB7DEB79C83FE
:101670008B837E836D831A82198213C02B813C81F8
:1016800089819A81820F931FFC0120818D819E8127
:10169000BC01822F0E942C0A89819A8101969A832B
:1016A00089832B813C8189819A81820F931FFC0160
:1016B0008081882319F70000000026960FB6F89461
:1016C000DEBF0FBECDBFDF91CF9108951F920F9265
:1016D0000FB60F9211242F933F934F935F936F9305
:1016E0007F938F939F93AF93BF93EF93FF93CF938A
:1016F000DF93CDB7DEB780916000813049F58091EE
:101700006E0090916F00892B09F442C020916E0009
:1017100030916F008FE290E0FC018081F901099522
:101720008DE290E0FC0120818DE290E02F7BFC01B6
:1017300020838DE290E0FC0120818DE290E02F7704
:10174000FC01208341E064E081E00E941D0520C08F
:10175000809160008823E1F48DE290E0FC0120811B
:101760008DE290E02F77FC01208320917000309172
:1017700071008FE290E0FC018081F90109958DE212
:1017800090E0FC0120818DE290E02F7BFC01208322
:101790008AE0809360000000DF91CF91FF91EF918C
:1017A000BF91AF919F918F917F916F915F914F9179
:1017B0003F912F910F900FBE0F901F901895A1E2AF
:1017C0001A2EAA1BBB1BFD010DC0AA1FBB1FEE1FBB
:1017D000FF1FA217B307E407F50720F0A21BB30B06
:1017E000E40BF50B661F771F881F991F1A9469F782
:1017F00060957095809590959B01AC01BD01CF01DE
:1018000008950E94350C08F481E008950E94610C4F
:1018100088F09F5798F0B92F9927B751B0F0E1F0B1
:10182000660F771F881F991F1AF0BA95C9F714C061
:10183000B13091F00E947B0CB1E008950C947B0CC8
:10184000672F782F8827B85F39F0B93FCCF386959A
:1018500077956795B395D9F73EF4909580957095F7
:1018600061957F4F8F4F9F4F0895990F0008550F37
:10187000AA0BE0E8FEEF16161706E807F907C0F016
:1018800012161306E407F50798F0621B730B840B1E
:10189000950B39F40A2661F0232B242B252B21F4F8
:1018A00008950A2609F4A140A6958FEF811D811D98
:1018B000089557FD9058440F551F59F05F3F71F040
:1018C0004795880F97FB991F61F09F3F79F08795A7
:1018D0000895121613061406551FF2CF4695F1DF30
:1018E00008C0161617061806991FF1CF86957105C0
:1018F000610508940895E894BB2766277727CB01F4
:1019000097F908950E94350C08F48FEF08950E940E
:101910009A0C0C940B0D0E94FD0C38F00E94040DE3
:1019200020F0952311F00C94F40C0C94FA0C112473
:101930000C947C0C0E94590C70F3959FC1F3950F89
:1019400050E0551F629FF001729FBB27F00DB11D43
:10195000639FAA27F00DB11DAA1F649F6627B00DD3
:10196000A11D661F829F2227B00DA11D621F739FBC
:10197000B00DA11D621F839FA00D611D221F749FCA
:101980003327A00D611D231F849F600D211D822F11
:10199000762F6A2F11249F5750409AF0F1F0882338
:1019A0004AF0EE0FFF1FBB1F661F771F881F915065
:1019B0005040A9F79E3F510580F00C94F40C0C9414
:1019C0007C0C5F3FE4F3983ED4F38695779567955A
:1019D000B795F795E7959F5FC1F7FE2B880F911D8F
:1019E0009695879597F9089597F99F6780E870E035
:1019F00060E008959FEF80EC089500240A94161685
:101A0000170618060906089500240A9412161306EC
:101A1000140605060895092E0394000C11F488237A
:101A200052F0BB0F40F4BF2B11F460FF04C06F5F96
:0C1A30007F4F8F4F9F4F0895F894FFCF19
:081A3C000A80250000030100EF
:00000001FF
